:100000000C942A000C9447000C9447000C94470071
:100010000C9447000C9447000C9447000C94470044
:100020000C9447000C9447000C9447000C94470034
:100030000C9447000C9447000C9447000C94470024
:100040000C9447000C9447000C9447000C94470014
:100050000C94470011241FBECFE5D4E0DEBFCDBF16
:1000600010E0A0E6B0E0E2EEF0E002C005900D92F4
:10007000A036B107D9F710E0A0E6B0E001C01D92AC
:10008000A036B107E1F70E9451000C946F000C9468
:10009000000086B1876086B93E9A3D9A379A369AB3
:1000A00008958FEF81BB17BA86B1876086B93E9AF3
:1000B0003D9A379A369A20E030E091E0369A86B140
:1000C00085B1853A40F42F5F3F4F83E0293E3807E2
:1000D000A8F312BA01C092BB20E030E0EFCFF89451
:0200E000FFCF50
:00000001FF
